:100000000C9463000C948B000C948B000C94BE0435
:100010000C94BE040C94BE040C948B000C948B00C6
:100020000C948B000C948B000C948B000C948B0024
:100030000C948B000C948B000C948B000C948B0014
:100040000C941C040C948B000C948C040C9466048B
:100050000C948B000C948B000C948B000C948B00F4
:100060000C948B000C948B0000000008000201002F
:100070000003040700000000000000000000000072
:10008000250028002B0000000000240027002A0083
:1000900000000000230026002900040404040404D6
:1000A0000404020202020202030303030303010227
:1000B00004081020408001020408102001020408F6
:1000C00010203805230911241FBECFEFD8E0DEBF72
:1000D000CDBF12E0A0E0B1E0EEE1F3E102C0059097
:1000E0000D92A03EB107D9F723E0A0EEB2E001C027
:1000F0001D92A83FB207E1F710E0C2E6D0E004C0CD
:100100002197FE010E947709C136D107C9F70E94E5
:100110001A060C9482090C94000090E0FC01E85946
:10012000FF4F3491FC01E255FF4F2491FC01E6564C
:10013000FF4FE491EE2309F43BC0332339F1333010
:1001400091F038F43130A9F0323001F584B58F7D6B
:1001500012C0373091F03830A1F03430B9F48091CA
:1001600080008F7D03C0809180008F778093800016
:100170000DC084B58F7784BD09C08091B0008F77A2
:1001800003C08091B0008F7D8093B000F0E0EE0F4F
:10019000FF1FE458FF4FA591B4918FB7F894EC91ED
:1001A000611103C020952E2301C02E2B2C938FBFED
:1001B00008953FB7F8948091380390913903A09146
:1001C0003A03B0913B0326B5A89B05C02F3F19F019
:1001D0000196A11DB11D3FBFBA2FA92F982F8827C7
:1001E000820F911DA11DB11DBC01CD0142E0660F22
:1001F000771F881F991F4A95D1F708958F929F9274
:10020000AF92BF92CF92DF92EF92FF926B017C018F
:100210000E94D9004B015C01C114D104E104F10436
:10022000F1F00E94D900DC01CB0188199909AA09D3
:10023000BB09883E9340A105B10570F321E0C21AC5
:10024000D108E108F10888EE880E83E0981EA11C11
:10025000B11CC114D104E104F10419F7DDCFFF9002
:10026000EF90DF90CF90BF90AF909F908F900895C8
:10027000CF92DF92EF92FF920F931F93CF93DF9372
:100280006C017A018B01C0E0D0E0CE15DF0589F06A
:10029000D8016D918D01D601ED91FC910190F08115
:1002A000E02DC6010995892B11F47E0102C021962B
:1002B000ECCFC701DF91CF911F910F91FF90EF908D
:1002C000DF90CF900895FC01918D828D981761F099
:1002D000828DDF01A80FB11D5D968C91928D9F5F7D
:1002E0009F73928F90E008958FEF9FEF0895FC0128
:1002F000918D828D981731F0828DE80FF11D858DDB
:1003000090E008958FEF9FEF0895FC01918D228D6D
:10031000892F90E0805C9F4F821B91098F739927F2
:1003200008958CE393E00E94850121E0892B09F474
:1003300020E0822F0895FC01848DDF01A80FB11DFC
:10034000A35ABF4F2C91848D90E001968F7399270B
:10035000848FA689B7892C93A089B1898C918064F8
:100360008C93938D848D981306C00288F389E02DB9
:1003700080818F7D80830895EF92FF920F931F936A
:10038000CF93DF93EC0181E0888F9B8D8C8D981348
:1003900005C0E889F989808185FD24C0F62E0B8D82
:1003A00010E00F5F1F4F0F731127E02E8C8DE812A6
:1003B0000CC00FB607FCFACFE889F989808185FF68
:1003C000F5CFCE010E949B01F1CF8B8DFE01E80F8E
:1003D000F11DE35AFF4FF0820B8FEA89FB89808180
:1003E000806207C0EE89FF896083E889F98980818E
:1003F0008064808381E090E0DF91CF911F910F9125
:10040000FF90EF900895CF93DF93EC01888D8823C0
:10041000C9F0EA89FB89808185FD05C0A889B98971
:100420008C9186FD0FC00FB607FCF5CF808185FF4C
:10043000F2CFA889B9898C9185FFEDCFCE010E94BA
:100440009B01E7CFDF91CF91089580E090E0892B69
:1004500029F00E94910181110C94000008952091CF
:100460002203309123032817390771F49091200358
:1004700080912103981741F0E0912003F0E0E052D1
:10048000FD4F808190E008958FEF9FEF08950895CC
:100490001F93CF93DF93DC015C962D913C915D9788
:1004A0002115310539F481E090E013969C938E93E9
:1004B00012973DC05196ED91FC91529750969C91A8
:1004C0005097892F80951FB75E964C915E9741FBA0
:1004D000772770F941FD6095F8944081772311F0FA
:1004E000492B01C048234083E9012197F1F748E0F7
:1004F000508160FF02C0592B01C058235083E9018D
:100500002197F1F76695415099F7772321F0908173
:100510008923808303C08081982B90831FBF5C96C2
:100520008D919C915D970197F1F721E030E0C90131
:10053000DF91CF911F9108952091220330912303E1
:100540002817390771F4809121032091200390E04E
:10055000805C9F4F821B910960E470E00E942D092E
:10056000089580E090E008952091220330912303C4
:1005700028173907B9F49091200380912103981727
:1005800089F0E0912003F0E0E052FD4F808120915E
:10059000200330E02F5F3F4F2F733327209320033A
:1005A00090E008958FEF9FEF0895E0912203F0917E
:1005B0002303E817F90769F4A389B4899C91858915
:1005C000809589238C93109223031092220381E05B
:1005D000089580E00895CF93C82F6DE889ED93E0EA
:1005E0000E9448026C2F89ED93E0CF910C94480251
:1005F00046E050E068E171E089ED93E00C94380149
:1006000046E050E062E171E089ED93E00C9438013E
:10061000009769F0FC0101900020E9F73197AF01E4
:10062000481B590BBC018CE393E00C94380180E02B
:1006300090E00895CF93DF930E940803EC0188ECCB
:1006400091E00E9408038C0F9D1FDF91CF910895C8
:1006500046E050E06EE171E089ED93E00E943801E0
:1006600042E050E064EA71E089ED93E00E943801D5
:100670008BEC91E00C941A03CF93DF93EC0146E0EE
:1006800050E06CE071E089ED93E00E94380187ED65
:1006900091E00E941A0328EE33E0C29FB001C39F8D
:1006A000700DD29F700D1124072E000C880B990B32
:1006B0000E94FE0046E050E06EE171E089ED93E0BB
:1006C000DF91CF910C94380146E050E066E071E094
:1006D00089ED93E00E94380185EE91E00E941A03B3
:1006E00060ED77E080E090E00E94FE0046E050E0A0
:1006F0006EE171E089ED93E00C94380146E050E042
:1007000060E071E089ED93E00E94380182EF91E0B2
:100710000E941A0360ED77E080E090E00E94FE0006
:1007200046E050E06EE171E089ED93E00C94380111
:100730008F929F92AF92BF92CF92DF92EF92FF92F1
:100740000F931F93CF93DF93CDB7DEB7A1970FB66B
:10075000F894DEBF0FBECDBF6C01990FEE08FF0805
:10076000F7FE31C0E0913C03F0913D030190F08130
:10077000E02D6DE28CE393E009958C01222733276D
:10078000A9012C193D094E095F0919A2CE018196D4
:100790007C019AE0892E912CA12CB12CCA01B901BF
:1007A000A50194010E944109605DF70162937F01F8
:1007B000211531054105510589F7CF010E94080334
:1007C000080F191F1EC0A701960119A28E010F5D07
:1007D0001F4F8AE0C82ED12CE12CF12CCA01B9019F
:1007E000A70196010E944109605DF80162938F01A3
:1007F000211531054105510589F7CF010E940803F4
:100800008C0188EC91E00E940803800F911FA19653
:100810000FB6F894DEBF0FBECDBFDF91CF911F9111
:100820000F91FF90EF90DF90CF90BF90AF909F908F
:100830008F9008950E947D091F920F920FB60F921C
:1008400011242F933F938F939F93AF93BF938091E6
:10085000340390913503A0913603B0913703309162
:10086000330323E0230F2D3720F40196A11DB11D82
:1008700005C026E8230F0296A11DB11D2093330366
:100880008093340390933503A0933603B0933703DA
:100890008091380390913903A0913A03B0913B03C2
:1008A0000196A11DB11D8093380390933903A09345
:1008B0003A03B0933B03BF91AF919F918F913F91CA
:1008C0002F910F900FBE0F901F9018951F920F92AF
:1008D0000FB60F9211242F933F934F935F936F9313
:1008E0007F938F939F93AF93BF93EF93FF938CE38B
:1008F00093E00E949B01FF91EF91BF91AF919F9177
:100900008F917F916F915F914F913F912F910F90B8
:100910000FBE0F901F9018951F920F920FB60F9257
:1009200011242F938F939F93EF93FF93E0914C03A8
:10093000F0914D038081E0915203F091530382FDC9
:1009400012C09081809155038F5F8F732091560361
:10095000821751F0E0915503F0E0E45CFC4F958F75
:100960008093550301C08081FF91EF919F918F91FA
:100970002F910F900FBE0F901F9018951F920F92FE
:100980000FB60F9211242F933F934F935F936F9362
:100990007F938F939F93AF93BF93EF93FF93E091D8
:1009A0002203F0912303309709F451C0968DA68558
:1009B000B785858591FF04C09C91892329F447C0A0
:1009C0009C91892309F043C0A389B4899C918589AE
:1009D000809589238C93868997890197F1F7608D9B
:1009E000718DA685B785558538E020E0CB0101974C
:1009F000F1F7822F90E095958795282F4C9145230C
:100A000009F02068315091F7868D81FD2095809105
:100A1000210390E001968F739927309120033817B6
:100A200049F0A0912103B0E0A052BD4F2C938093D8
:100A3000210303C0868D8160868F828D938D0197FF
:100A4000F1F7A389B4899C918589892B8C93FF91B7
:100A5000EF91BF91AF919F918F917F916F915F9136
:100A60004F913F912F910F900FBE0F901F901895AF
:100A7000CF93DF9310923F0310923E0388EE93E0F2
:100A8000A0E0B0E08093400390934103A093420321
:100A9000B09343032CEA31E030933D0320933C03B1
:100AA00025EC30E0309349032093480324EC30E0F8
:100AB00030934B0320934A0320EC30E030934D03F6
:100AC00020934C0321EC30E030934F0320934E03EE
:100AD00022EC30E0309351032093500326EC30E0B9
:100AE00030935303209352031092550310925603F0
:100AF00010925703109258031092DC031092DB03FC
:100B00008093DD039093DE03A093DF03B093E003B3
:100B10008CEB91E09093DA038093D9031092F00369
:100B20001092EF031092F2031092F1031092F4036B
:100B30001092F3031092F6031092F5036091F703FD
:100B40006E7F6D7F6093F7036695617081E0682723
:100B50008BE00E948D00E9EBF0E02491E5EAF0E003
:100B60008491882399F090E0880F991FFC01EA573F
:100B7000FF4FA591B491FC01E458FF4F85919491EA
:100B80008FB7F894EC91E22BEC938FBFE9EBF0E098
:100B9000E491E093E903E5EAF0E0E491F0E0EE0FA0
:100BA000FF1FE458FF4F859194919093EB0380933E
:100BB000EA03E8EBF0E02491E4EAF0E08491882392
:100BC000C1F090E0880F991FFC01EA57FF4FC591D3
:100BD000D491FC01E458FF4FA591B4919FB7F894CC
:100BE0008881E22FE0958E2388838C91E823EC9313
:100BF0009FBF8091F70381FD04C061E08AE00E94FD
:100C00008D008AE08093E503E8EBF0E0E491E09367
:100C1000E603E4EAF0E0E491F0E0EE0FFF1FE057B6
:100C2000FF4F859194919093E8038093E703DF91C0
:100C3000CF910895789484B5826084BD84B5816035
:100C400084BD85B5826085BD85B5816085BD809197
:100C50006E00816080936E0010928100809181000F
:100C60008260809381008091810081608093810007
:100C7000809180008160809380008091B1008460C9
:100C80008093B1008091B00081608093B00080912A
:100C90007A00846080937A0080917A0082608093E9
:100CA0007A0080917A00816080937A0080917A0046
:100CB000806880937A001092C100E0914C03F0911B
:100CC0004D0382E08083E0914803F0914903108254
:100CD000E0914A03F0914B0387E68083109254031E
:100CE000E0915003F091510386E08083E0914E0340
:100CF000F0914F03808180618083E0914E03F091F9
:100D00004F03808188608083E0914E03F0914F0310
:100D1000808180688083E0914E03F0914F03808151
:100D20008F7D808380E092E00E941A031092F4038A
:100D30001092F3031092F2031092F1031092F00359
:100D40001092EF038DEC90E09093F6038093F503FF
:100D50009091E503963108F057C025E530E03093D7
:100D6000F0032093EF032BEC30E03093F203209359
:100D7000F10320E930E03093F4032093F303209152
:100D80006800983050F031E09E3008F430E081E0A7
:100D900001C0880F3A95EAF701C084E0822B809366
:100DA0006800983038F09E3040F0963148F020E0EE
:100DB00030E008C02DE630E005C02BE630E002C090
:100DC0002CE630E03093ED032093EC03983030F4C0
:100DD00081E001C0880F9A95EAF70EC0292F30E014
:100DE0009E3018F42850310902C02E50310981E09C
:100DF00001C0880F2A95EAF78093EE038091F503EE
:100E00009091F6030197F1F78091F3039091F40329
:100E1000892B21F1809122039091230323E0893DC6
:100E20009207E1F0009711F00E94D5028091F7033C
:100E30008E7F8093F703109221031092200389ED97
:100E400093E09093230380932203E091EC03F091CD
:100E5000ED0390818091EE03892B8083109227030C
:100E60001092260310922503109224032FB7F894B2
:100E70008091340390913503A0913603B0913703EC
:100E80002FBF80932F0390933003A0933103B0932F
:100E9000320389ED93E00E949C02892B49F089ED91
:100EA00093E00E94B402682F8CE393E00E94BC019F
:100EB0002FB7F8948091340390913503A0913603B5
:100EC000B09137032FBF40912F03509130036091B1
:100ED000310370913203841B950BA60BB70B8093E3
:100EE0002B0390932C03A0932D03B0932E0380919A
:100EF0002A03882371F042E050E066EA71E089ED50
:100F000093E00E94380168EB7BE080E090E00E9473
:100F1000FE008CE393E00E948501892B09F490C1C7
:100F20008CE393E00E94630190932903809328034C
:100F30008934910509F467C0BCF58833910509F43B
:100F400013C17CF48832910509F456C089329105A9
:100F500009F44DC08032910509F04EC10E9428036A
:100F60006FC18334910509F4A3C08634910509F457
:100F7000F1C08234910509F03FC146E050E064E2DF
:100F800071E089ED93E00E94380186EA92E00E94C8
:100F90001A0360ED77E080E090E00E94FE0046E0FA
:100FA00050E06EE171E0DBC08235910509F4CFC0FD
:100FB0007CF48D34910509F4C1C08035910509F4A4
:100FC0006DC08C34910509F017C10E94640338C1CB
:100FD0008D36910509F47FC08337910509F45BC014
:100FE0008436910509F008C180E792E059C00E945B
:100FF000000387E092E004C00E94F8028BE192E0D7
:101000000E941A031DC18EE292E00E941A0361E061
:1010100085E00E948D0064E670E080E090E00E9430
:10102000FE0060E085E00E948D0064EF71E080E0EA
:1010300090E00E94FE0061E085E00E948D0060ED7E
:1010400077E080E090E00E94FE0060E08DE00E948A
:101050008D0081E492E00E941A0360E889ED93E03C
:101060000E94480264E170E080E090E00E94FE008F
:1010700062E889ED93E00E94480264E889ED93E01C
:101080000E94480264E170E080E090E00E94FE006F
:101090008CE492E0B5CF87E892E002C08EE892E05F
:1010A0000E941A0365E889ED93E00E944802C8C0D7
:1010B00067E889ED93E00E94480242E050E064EA6C
:1010C00071E089ED93E00E94380181E080932A036A
:1010D00087E792E095CF41E150E063E971E089ED67
:1010E00093E00E94380143E250E060E771E089ED4F
:1010F00093E00E94380141E250E06FE471E089ED35
:1011000093E00E9438014DE050E062E471E089ED27
:1011100093E00E9438014DE050E065E371E089ED15
:1011200093E00E9438014BE050E06AE271E089ED03
:1011300093E00E94380185E992E062CF8FE992E066
:101140000E941A0342E050E066EA71E008C00E9483
:101150007E0376C082E090E00E943C0371C089ED7E
:1011600093E00E9438016CC00E94640382E00E94F8
:10117000EB020E94000382E00E94EB0264E971E14D
:1011800080E090E00E94FE000E94000383E00E9445
:10119000EB0264E971E180E090E00E94FE0081E0F2
:1011A00090E00E943C030E947E0389E00E94EB02D3
:1011B0000E94F80264E971E180E090E00E94FE0084
:1011C00081E00E94EB020E94F80264E971E180E094
:1011D00090E00E94FE0081E090E00E943C030E94AB
:1011E000640382E090E00E943C030E947E030E9420
:1011F000280381EB92E004CFC0970A9750F08FEB61
:1012000092E00E94080380912803909129030E9494
:1012100098036DE889ED93E00E94480260912803ED
:10122000605389ED93E00E94480280ED92E00E94B5
:1012300008038091280390912903C0970E94980386
:101240000E94250226CE8CEB91E09093DA038093E6
:10125000D90389ED93E00C94D50297FB072E16F481
:10126000009407D077FD09D00E94630907FC05D0E0
:101270003EF4909581959F4F0895709561957F4FAD
:101280000895A1E21A2EAA1BBB1BFD010DC0AA1FC7
:10129000BB1FEE1FFF1FA217B307E407F50720F0DF
:1012A000A21BB30BE40BF50B661F771F881F991F5A
:1012B0001A9469F760957095809590959B01AC01A3
:1012C000BD01CF010895AA1BBB1B51E107C0AA1F96
:1012D000BB1FA617B70710F0A61BB70B881F991FD7
:1012E0005A95A9F780959095BC01CD010895EE0F10
:1012F000FF1F0590F491E02D099481E090E0F894AF
:101300000C94820910E0C2E6D0E004C0FE010E9405
:0E13100077092196C336D107C9F7F894FFCFAD
:10131E00890064000100890064FFFF008900648079
:10132E000000890064008000890064FF800089004D
:10133E000000000089FF9C8000008C0F0421102DFE
:10134E00142B0C1F288C03054530473043303730A3
:10135E003E408C02054F3051304D30413248408C6A
:10136E00090F24142514004124142514003C2414C0
:10137E002514003724142514003224142514002DAE
:10138E008C011024142514002824142514001E2466
:10139E00142514001424142514000A2414251400F2
:1013AE000526408C00071F3C2B373732432D4F2824
:1013BE005B23671E8A008D0F00000000BC01380100
:1013CE008501630177010302000000004802380125
:1013DE009C02B4022F0247020D0A00416C6C20538E
:1013EE00746F7070656400676F696E6720666F72E8
:1013FE0077617264007475726E696E67206C6566D3
:10140E0074007475726E696E672072696768740015
:10141E004D656E75203100636972636C6520746F63
:10142E002074686520726967687400636972636C02
:10143E006520746F20746865206C65667400646442
:10144E0050696E204869676820616E64206C6F7702
:10145E0000646450696E204869676800526F6F6D52
:10146E00626120496E697469616C697A65642028CD
:10147E0073746172742C20636F6D6D616E642900DC
:10148E006420646F6E6500436C65616E2C206E6F18
:10149E00206272757368657320646F6E65005020EC
:1014AE00646F6E6500536F6E677320536574004DE5
:1014BE0020646F6E65004261636B696E67207570A4
:1014CE0000736F206D75636820666F722038004E52
:1014DE006F74207265636F676E697A65643A200077
:1014EE00506C6179696E6720536F6E67203A000009
:00000001FF
